:030000000208A44F
:0C08A400787FE4F6D8FD7581070208009B
:1008000075A0BF12088712088175A086120887128A
:10081000088175A0DB12088712088175A0CF120825
:100820008712088175A0E6120887C290D292C294FE
:1008300012088775A0ED120887C290D292C2941256
:10084000088775A0FD120887C290D292C294120840
:100850008775A087120887C290D292C29412088727
:1008600075A0FF120887C290C292D29412088775B1
:10087000A0EF120887C290C292D294120887020891
:010880000077
:06088100D290C292C29465
:10088700E4FFFEE4FDFC0DBD00010CED64644C705B
:0C089700F50FBF00010EBE03EABFE8E74A
:0108A3002232
:00000001FF
